:020000040800F2
:100000000050002021020008290200082D020008EB
:10001000A1020008A5020008ED020008000000008F
:100020000000000000000000000000003503000890
:1000300039030008000000003D03000841030008E8
:100040005103000851030008510300085103000840
:100050005103000851030008510300085103000830
:100060005103000851030008510300085103000820
:100070005103000851030008510300085103000810
:100080005103000851030008510300085103000800
:1000900051030008510300085103000851030008F0
:1000A00051030008510300085103000851030008E0
:1000B00051030008510300085103000851030008D0
:1000C00051030008510300085103000851030008C0
:1000D00051030008510300085103000851030008B0
:1000E00051030008510300085103000800000000FC
:1000F0000000000000000000000000000000000000
:1001000000000000000000005FF808F100B583B0B7
:1001100000F072FC304B314A1360314A1360314BAE
:10012000314A03E011681960043304322F498B42CD
:10013000F8D32A4B1A682E4B9A4204D1284B1A68DE
:100140002C4B9A4200D0FEE7234B2B4A13602B4ADC
:1001500013602B4B02E000221A600433294A9342B9
:10016000F9D3254B1B6813B9244B1B6803B1FEE779
:1001700000F04EFC694601A800F06AFB224C234BBC
:100180001C1BA410002504E01F4B53F82530984792
:100190000135AC42F8DC1E4C1E4B1C1BA410002584
:1001A00004E01B4B53F8253098470135AC42F8DC8E
:1001B0000099019800F052FF0546174C174B1C1B85
:1001C000A41004E0013C144B53F824309847002C51
:1001D000F8DC284600F0D8FABABADECA00000020DF
:1001E0009400002000000020A41D000898000020BA
:1001F0007856341232547698980000206802002015
:10020000980000206C0200207C0300087C0300089A
:100210007C0300087C0300087C0300087C030008C2
:1002200008B5FFF773FF00BF00BEFEE71EF0040F26
:100230000CBFEFF30880EFF309807146414A104785
:100240002DE9F04182B004468846134B5E6B9F6BEC
:100250009D6A1B6B13F0020F0DD00F4BDB6A002B56
:1002600009DA4BF6AB6100F04FFC20B14FF00042D1
:10027000094BDA620CE0094800F060FBCDF8008021
:100280003B4632462946204600F0C6FB00BEFEE74C
:1002900002B0BDE8F08100BF00ED00E0BC1B00082B
:1002A00000BEFEE71EF0040F0CBFEFF30880EFF373
:1002B00009807146244A10472DE9F04182B0044676
:1002C0008846084B5E6B9F6B9D6A074800F036FBC3
:1002D000CDF800803B4632462946204600F09CFB84
:1002E00000BEFEE700ED00E0CC1B00081EF0040F8E
:1002F0000CBFEFF30880EFF309807146134A1047F3
:100300002DE9F04182B004468846084B5E6B9F6B36
:100310009D6A074800F012FBCDF800803B4632464C
:100320002946204600F078FB00BEFEE700ED00E025
:10033000D81B000800BEFEE700BEFEE700BEFEE7D9
:100340007047000041020008B902000801030008DC
:0403500000BEFEE706
:10035400A41D00080000002098000020A41D00082F
:100364000000000000000000980000206C02002043
:08037400000000000000000081
:10037C00F8B505460C46464B98421BD003F58063F6
:10038C00984217D003F58063984213D003F580632D
:10039C0098420FD003F5806398420BD003F580632D
:1003AC00984207D003F58063984203D0B2213948B4
:1003BC0000F0B4FAE3788BB1042B0FD0282B0DD0BE
:1003CC00482B0BD0142B09D0102B07D01C2B05D08D
:1003DC00182B03D0B3212F4800F0A0FA23881BB9A7
:1003EC00B4212C4800F09AFAE37803F00F0630465B
:1003FC0013F0100F0AD0A378013BDBB2022B03D908
:10040C00BB21244800F08AFAA07830432378E3B16A
:10041C002E68002316E001229A40218832EA01015D
:10042C000FD199000F278F4026EA070600FA01F139
:10043C000E43E178282901D16A6102E0482900D1F4
:10044C002A610133072BE6D92E602388FF2B1ED996
:10045C006E68002318E003F1080101228A4021880C
:10046C0032EA01010FD199000F278F4026EA0706C7
:10047C0000FA01F10E43E178282900D16A61E17894
:10048C00482900D12A610133072BE4D96E60F8BDED
:10049C00000801408419000838B504460D46144B79
:1004AC0098421CD003F58063984218D003F5806302
:1004BC00984214D003F58063984210D003F5806302
:1004CC0098420CD003F58063984208D003F5806302
:1004DC00984204D040F26911064800F01FFA25B981
:1004EC004FF4B571034800F019FA256138BD00BF0F
:1004FC00000801408419000838B504460D46144B19
:10050C0098421CD003F58063984218D003F58063A1
:10051C00984214D003F58063984210D003F58063A1
:10052C0098420CD003F58063984208D003F58063A1
:10053C00984204D040F27911064800F0EFF925B941
:10054C004FF4BD71034800F0E9F9656138BD00BF97
:10055C00000801408419000870B504460D46164683
:10056C002C4B98421CD003F58063984218D003F5AD
:10057C008063984214D003F58063984210D003F541
:10058C00806398420CD003F58063984208D003F541
:10059C008063984204D040F28D111F4800F0BEF9E0
:1005AC006B1E9BB2012B28D9042D26D0082D24D0EC
:1005BC00102D22D0202D20D0402D1ED0802D1CD0CF
:1005CC00B5F5807F19D0B5F5007F16D0B5F5806FE5
:1005DC0013D0B5F5006F10D0B5F5805F0DD0B5F523
:1005EC00005F0AD0B5F5804F07D0B5F5004F04D0A9
:1005FC004FF4C771084800F091F9012E04D940F26C
:10060C008F11054800F08AF90EB1256170BD656146
:10061C0070BD00BF000801408419000810B4294BBC
:10062C005B6803F00C03042B05D0082B06D013BB1E
:10063C00254B036021E0244B03601EE0214A5368E4
:10064C005268C3F38343023312F4803F04D11F4A30
:10065C0002FB03F3036010E01A4A526812F4003FE5
:10066C0004D01A4A02FB03F3036006E0164A02FBAD
:10067C0003F3036001E0144B036012494B68C3F3AE
:10068C000313134CE35CDAB20368D34043604A684B
:10069C00C2F30222A25CD2B223FA02F282604A684E
:1006AC00C2F3C222A25CD2B2D340C3604A68C2F386
:1006BC00813208498A5CD2B2B3FBF2F3036110BCFD
:1006CC00704700BF0010024000127A0000093D0084
:1006DC00080000200400002038B504460D460E4BDF
:1006EC00034003B920B940F24A410C4800F016F916
:1006FC00012D04D940F24B41084800F00FF925B107
:10070C00074A93691C43946138BD054A936923EAEF
:10071C000404946138BD00BF0200C0FFB819000882
:10072C000010024008B5034800F01AF9012000F04F
:10073C0025F800BFE819000808B50D4B1B6813B964
:10074C000C4A0B4B1A600A4B1A68C31C23F00303A8
:10075C00134409498B4206D900F0B2FC0C23036008
:10076C004FF0FF3008BD02490B60104608BD00BFBA
:10077C009C0000206C020020004C002000B508B941
:10078C00044D00E0044D182420462946ABBE044617
:10079C00FEE700BF26000200230002002DE9F04115
:1007AC0084B0234F01970326039600230293012460
:1007BC0001AD20462946ABBE80461E4BC3F80080D7
:1007CC00019703960423029320462946ABBE80462C
:1007DC00194BC3F800800197039608230293204617
:1007EC002946ABBE0446154B1C60B4F1FF3F03D148
:1007FC00114B1A68114B1A60002305E04FF0FF31C2
:10080C000F4A42F833100133132BF7DD0C4B094A16
:10081C0012681A6000225A60074909689960DA6008
:10082C000649096819615A6104B0BDE8F08100BF3E
:10083C00FC190008A4000020A0000020D00000201B
:10084C0024010020F0B583B006460D46304B0093D2
:10085C004F2301936F46152420463946ABBE044600
:10086C00002C42D12A4B83F84F40009A2746214650
:10087C0036E0E1B927480068184490F901000028D7
:10088C0003DB092B03D1012002E0012000E0002052
:10089C0028BB082C2ADC222B01D0272B01D10132BA
:1008AC001F461D4B43F824200134012117E02FB1C2
:1008BC009F4214D1002111700F4610E015480068BA
:1008CC00184490F90100002803DB092B03D1012304
:1008DC0002E0012300E000230BB100211170013272
:1008EC0092F90030002BC4D100E000242CB9084B45
:1008FC0000221A70084A13600134074B002243F897
:10090C00242034602B60FFF749FF03B0F0BD00BF1B
:10091C00D40000202C000020A800002008B50A46B6
:10092C000146024800F004F8FFF7FCFE481A0008E4
:10093C000FB400B583B004AB53F8042B01938021A2
:10094C00064800F06FFC002803DD0146034800F068
:10095C0049F803B05DF804EB04B07047C401002003
:10096C0010B5044600F02AFC0146204600F03AF887
:10097C000121024800F036F810BD00BF381B0008FA
:10098C002DE9F04385B004460F46435613BB0425AE
:10099C0028462146ABBE04461FE03546102E28BF24
:1009AC001025002306E014F9011B04AA1A4402F8CE
:1009BC00101C0133AB42F6D304AA1344002203F8F3
:1009CC00102CE9464FF0040840464946ABBE804621
:1009DC00761B00E00E46002EDFD1384605B0BDE890
:1009EC00F08300BF08B5FFF7CBFF08BD08B500F0DA
:1009FC006BF9024B024A9A6008BD00BF00ED00E0A3
:100A0C000000000808B500F087F908BDF8B50446E9
:100A1C000D4617461E462648FFF78AFF21682548D3
:100A2C00FFF786FF61682448FFF782FFA16823481F
:100A3C00FFF77EFFE1682248FFF77AFF2169214822
:100A4C00FFF776FF61692048FFF772FFA1691F4825
:100A5C00FFF76EFFE1691E48FFF76AFF1D48FFF7BD
:100A6C0067FF29461C48FFF763FF1C4CE16A1C48D2
:100A7C00FFF75EFF216B1B48FFF75AFFE16B1A482B
:100A8C00FFF756FF15F0800F03D039461748FFF7D4
:100A9C004FFF15F4004F03D031461548FFF748FFC0
:100AAC001448FFF745FF06991348FFF741FFF8BDBF
:100ABC00A01A0008B01A0008C01A0008D01A0008C2
:100ACC00E01A0008F01A0008001B0008101B0008B0
:100ADC00201B0008301B00083C1B000800ED00E048
:100AEC004C1B00085C1B00086C1B00087C1B0008DE
:100AFC008C1B00089C1B0008A41B000838B58369DC
:100B0C001B888B426FD1044603684568013B302B30
:100B1C006BD8DFE803F0421D63635A2C2F29191997
:100B2C006A19191919193219206A19236A356A6A4E
:100B3C006A6A6A6A6A6A6A6A6A6A6A6A6A6A6A6A09
:100B4C006A6A6A6A6A1919004FF0FF33036045E05C
:100B5C000023036042E0002303603FE000232B608E
:100B6C006B60AB60EB6039E00023036036E0AB6890
:100B7C00036033E00023036030E0002303602DE0CA
:100B8C00BFF34F8F1A49CA6802F4E062194B134342
:100B9C00CB60BFF34F8F00BFFDE71749286800F00B
:100BAC0003FB70B96B6813B90123236016E0042BA7
:100BBC0002D10223236011E0082B02D1032323600E
:100BCC000CE04FF0FF33236008E02B68023B012B55
:100BDC0002D80023036001E0AB680360A369023311
:100BEC00A361012038BD002038BD002038BD00BFF6
:100BFC0000ED00E00400FA05FC19000882B00023A7
:100C0C00019300932C4A136843F4803313602A4BEE
:100C1C001B6803F400330093019B01330193009B89
:100C2C001BB9019BB3F5A06FF1D1234B1B6813F4D7
:100C3C00003F02D00123009301E000230093009BAE
:100C4C00012B36D11D4B1A6842F010021A601A683B
:100C5C0022F003021A601A6842F002021A60A3F52D
:100C6C0080535A685A605A685A605A6842F48062D3
:100C7C005A605A6822F47C125A605A6842F4E8129C
:100C8C005A601A6842F080721A600B4B1B6813F0A2
:100C9C00007FFAD0084B5A6822F003025A605A6857
:100CAC0042F002025A60044B5B6803F00C03082B01
:100CBC00F9D102B0704700BF001002400020024082
:100CCC0008B5FFF79BFF08BD08B5104B1A6842F03A
:100CDC0001021A6059680E4A0A405A601A6822F0DA
:100CEC00847222F480321A601A6822F480221A600C
:100CFC005A6822F4FE025A604FF41F029A60FFF702
:100D0C00DFFF4FF00062034B9A6008BD00100240F9
:100D1C000000FFF800ED00E01F4B5B6803F00C03D4
:100D2C00042B06D0082B08D03BBB1C4A1C4B1A606A
:100D3C0026E01A4A1A4B1A6022E0174A5368526886
:100D4C00C3F38343023312F4803F05D1154A02FBEF
:100D5C0003F3134A136013E00F4A526812F4003F76
:100D6C0005D0104A02FB03F30D4A136008E00B4A4E
:100D7C0002FB03F30A4A136002E0084A084B1A60AC
:100D8C00054B5B68C3F30313074AD35CDAB204491F
:100D9C000B68D3400B6070470010024000127A00C1
:100DAC002800002000093D001800002010B5044662
:100DBC0010F0100F05D04FF400711E48FFF76CFBBC
:100DCC0004E04FF400711B48FFF796FB14F0200F62
:100DDC0005D04FF480611748FFF75EFB04E04FF439
:100DEC0080611448FFF788FB14F0400F04D02021D9
:100DFC001148FFF751FB03E020210F48FFF77CFB64
:100E0C0014F0800F04D040210B48FFF745FB03E0A2
:100E1C0040210948FFF770FB064C01224FF480710A
:100E2C002046FFF799FB00224FF480712046FFF714
:100E3C0093FB10BD00080140000C014010B50446A6
:100E4C0010F0010F05D04FF400711E48FFF724FB82
:100E5C0004E04FF400711B48FFF74EFB14F0020F37
:100E6C0005D04FF480611748FFF716FB04E04FF4F0
:100E7C0080611448FFF740FB14F0040F04D02021CC
:100E8C001148FFF709FB03E020210F48FFF734FB63
:100E9C0014F0080F04D040210B48FFF7FDFA03E0D3
:100EAC0040210948FFF728FB064C01224FF48071C2
:100EBC002046FFF751FB00224FF480712046FFF7CC
:100ECC004BFB10BD00080140000C014010B504465E
:100EDC00FFF76CFF2046FFF7B1FF10BD10B50446BD
:100EEC00002201210348FFF737FB2046FFF7EEFFF6
:100EFC0010BD00BF000C014010B504460122114684
:100F0C000348FFF729FB2046FFF7E0FF10BD00BFA9
:100F1C00000C01402DE9F04182B001210C20FFF7BB
:100F2C00DBFB4FF4C063ADF8043010268DF807607E
:100F3C0003248DF80640284F01A93846FFF718FA0C
:100F4C006023ADF804308DF807608DF80640234D12
:100F5C0001A92846FFF70CFAADF804408DF807609C
:100F6C008DF8064001A92846FFF702FA4FF4807865
:100F7C00ADF804808DF807608DF8064001A938465D
:100F8C00FFF7F6F9002241463846FFF7E5FA002252
:100F9C0001212846FFF7E0FA002202212846FFF73C
:100FAC00DBFA3020FFF702FF3020FFF7FFFE302086
:100FBC00FFF7FCFE2020FFF7F9FE2820FFF78EFF3D
:100FCC000C20FFF78BFF0120FFF788FF0620FFF7AF
:100FDC0085FF02B0BDE8F08100080140000C014023
:100FEC0008B5FFF789FF08BD08B50F2800D9002008
:100FFC00012900D90021032903D8DFE801F00A04F4
:10100C000608002306E0C02304E0942302E0D42366
:10101C0000E080231844C0B2FFF760FF08BD00BF9A
:10102C0010B582B0044600230193019BE05CFFF7EE
:10103C00D7FF019B01330193019BE356002BF4D1A5
:10104C0002B010BD08B50120FFF748FF08BD00BF76
:10105C0008B5154C2046FFF7E1FA6368134AA2FB6A
:10106C0003239B09013BB3F1807F0AD2104A5360E2
:10107C00F021104B83F8231000239360072111609B
:10108C0000E0012303B1FEE7FFF744FF0A48FFF736
:10109C00C7FF01210020FFF7A7FF0848FFF7C0FF9B
:1010AC00FFF7D0FFFEE700BF54020020D34D6210C3
:1010BC0010E000E000ED00E0E81B0008F81B000861
:1010CC00014B1868704700BF9000002070B5CD1C14
:1010DC0025F0030508350C2D38BF0C25002D0646D0
:1010EC0001DBA94202D90C23336046E000F0A8F8DA
:1010FC00234B1C681A462146A1B10B685B1B0ED40E
:10110C000B2B03D90B60CC18CD501EE08C420BBFBF
:10111C0063684B681360636018BF0C4615E00C469F
:10112C004968E9E7174C23681BB9304600F02CF8E6
:10113C0020602946304600F027F8431C18D0C41C08
:10114C0024F00304A0420DD12560304600F079F85C
:10115C0004F10B00231D20F00700C31A0ED05A42D5
:10116C00E25070BD211A304600F00EF80130EBD180
:10117C000C233360304600F064F8002070BD00BFD3
:10118C00480200204402002038B5064C00230546D6
:10119C0008462360FFF7D0FA431C02D1236803B141
:1011AC002B6038BD4C02002010F8012B11F8013BCC
:1011BC00012A28BF9A42F7D0D01A7047034613F879
:1011CC00012B002AFBD1181A0138704730B5141EB8
:1011DC0005469BB0184604DA8B232B604FF0FF308A
:1011EC001DE04FF40273ADF80C300CBF234604F134
:1011FC00FF33029305934FF6FF7300910491ADF802
:10120C000E3002461E9B6946284600F0C1F8431C6E
:10121C00BCBF8B232B6014B1009B00221A701BB037
:10122C0030BD000007B5009313460A46014603483B
:10123C000068FFF7CBFF03B05DF804FB90000020C3
:10124C007047704738B50546002944D051F8043C26
:10125C000C1F002BB8BFE418FFF7F2FF1E4A1368EF
:10126C00114613B96360146030E0A3420DD92268B3
:10127C00A018834201BF18685B6812182260636073
:10128C000C6023E0A24203D813465A68002AF9D115
:10129C0018681918A1420BD12168014458188242D0
:1012AC00196013D110685268014419605A600DE03E
:1012BC0002D90C232B6009E021686018824201BF1F
:1012CC00106852680918216062605C602846BDE8AD
:1012DC003840FFF7B6BF38BD480200202DE9F04773
:1012EC008E6882469E420C46914698463ED88A8924
:1012FC0012F4906F3AD02568096902236F1A656958
:10130C0005EB450595FBF3F57B1C43449D4238BF2B
:10131C001D4653050FD52946FFF7D8FE064698B152
:10132C003A46216900F0D2FAA38923F4906343F082
:10133C008003A38113E02A4600F0EEFA064670B94A
:10134C0021695046FFF77EFF0C23CAF80030A389B1
:10135C004FF0FF3043F04003A381BDE8F0872661D6
:10136C003E44266046466561ED1BA560464528BF98
:10137C00464649463246206800F0B3FAA36800207E
:10138C009B1BA36023681E442660BDE8F087000009
:10139C002DE9F04F9DB003938B8980461C060D46BA
:1013AC0016460DD50B695BB94021FFF78FFE2860FF
:1013BC00286118B90C23C8F80030CDE040236B61CC
:1013CC000023099320238DF82930DFF89CB13023BA
:1013DC008DF82A3037463C4614F8013B1BB9B7EB65
:1013EC00060910D003E0252BF9D02746F3E74B462E
:1013FC00324629464046FFF771FF013000F0A780C6
:10140C00099B4B4409933B78002B00F0A0800023F0
:10141C004FF0FF3204930793059206938DF85330E7
:10142C001A930126052221784E4800F041FA671CD8
:10143C00049B38B14B4A3C46801A06FA00F018431C
:10144C000490EFE7D90644BF20228DF853201A07E9
:10145C0044BF2B228DF8532022782A2A03D0079AD6
:10146C0000210A200BE0039A111D12680391002A37
:10147C0010DA524243F00200079204900BE0274628
:10148C003B780134303B092B03D800FB023201219D
:10149C00F5E701B107923B782E2B1ED17B782A2BD6
:1014AC000AD1039B02371A1D1B680392002BB8BF8D
:1014BC004FF0FF33059310E0002319460593781C79
:1014CC000A2407463A780130303A092A03D804FB3B
:1014DC0001210123F5E703B1059103223978224854
:1014EC0000F0E6F940B14023CBEB000003FA00F02A
:1014FC00049B013718430490397806221B487E1C44
:10150C008DF8281000F0D4F988B1194B33B9039B2E
:10151C00073323F007030833039314E003AB009362
:10152C002A46144B04A94046AFF3008007E003ABF6
:10153C0000932A460F4B04A9404600F093F8B0F1F3
:10154C00FF3F824603D0099B5344099342E7AB8982
:10155C005B0601D4099801E04FF0FF301DB0BDE8E7
:10156C00F08F00BF6E1D0008741D0008781D000868
:10157C0000000000E91200082DE9F04791461F46D3
:10158C000A698B6806469342B8BF1346C9F8003007
:10159C0091F843200C46DDF8208012B10133C9F8D4
:1015AC0000302368990642BFD9F800300233C9F8DD
:1015BC000030256815F0060510D104F1190A07E072
:1015CC000123524639463046C04701301AD0013506
:1015DC00E368D9F800209B1A9D42F1DB94F8433064
:1015EC002268003318BF012392060FD5E118302072
:1015FC0081F843005A1C94F845102244023382F8B7
:10160C00431003E04FF0FF30BDE8F08704F14302D4
:10161C0039463046C0470130F4D02268D9F8005022
:10162C00E36802F00602042A08BF5D1B2269A36866
:10163C000CBF25EAE57500259342C4BF9B1AED1833
:10164C004FF000091A344D4509D001232246394682
:10165C003046C0470130D5D009F10109F3E700202D
:10166C00BDE8F0872DE9F04317460A7E85B06E2A57
:10167C00984606460C460C9B01F1430E00F0AE80DA
:10168C0011D8632A22D009D8002A00F0BB80582A2E
:10169C0040F0CA8081F84520834955E0642A1ED069
:1016AC00692A1CD0C0E0732A00F0B08009D86F2AD8
:1016BC002ED0702A40F0B8800A6842F020020A60EE
:1016CC003EE0752A24D0782A3AD0ADE01A6801F1B0
:1016DC004205111D1960136884F84230A8E0216896
:1016EC001A6811F0800F02D0111D196008E011F07A
:1016FC00400F02F10401196002D0B2F9003000E091
:10170C001368002B3CDA2D225B4284F8432037E02F
:10171C0021681A6811F0800F02D0111D196007E0C2
:10172C0011F0400F02F10401196001D0138800E0A0
:10173C001368227E5C496F2A14BF0A2208221BE020
:10174C0078225A4984F845202268186812F0800FD4
:10175C0000F104051D6003D1550601D5038800E096
:10176C000368D00744BF42F0200222601BB92268F4
:10177C0022F0200222601022002084F8430001E0B5
:10178C0049490A226568002DA56008DB206820F015
:10179C00040020602BB9002D7DD175460CE0002B88
:1017AC0079D07546B3FBF2F002FB1033CB5C05F835
:1017BC00013D03460028F5D1082A0BD12368DA072E
:1017CC0008D5236962689A42DEBF302305F8013CD4
:1017DC0005F1FF35C5EB0E0323612EE008681A688E
:1017EC0010F0800F496903D0101D1860136808E0D1
:1017FC0010F0400F02F104001860136801D019803A
:10180C0000E0196000232361754616E01A68111D6B
:10181C001960156800216268284600F049F808B183
:10182C00401B6060636804E004F1420584F84220C8
:10183C0001232361002384F84330CDF800803B461C
:10184C0003AA21463046FFF797FE013002D14FF034
:10185C00FF3026E023692A4639463046C04701301E
:10186C00F5D023689B0710D5002504F1190907E072
:10187C0001234A4639463046C0470130E7D001358E
:10188C00E368039A9B1A9D42F2DBE068039B984243
:10189C00B8BF184605E00B7804F1420584F84230D5
:1018AC008AE705B0BDE8F0837F1D0008901D000895
:1018BC0010B5C9B202449042034605D01C780130E1
:1018CC008C42F8D1184610BD002010BD10B5431E37
:1018DC000A44914204D011F8014B03F8014FF8E788
:1018EC0010BD884210B501EB020301D8421E0BE07B
:1018FC009842FBD28118D21AD34204D013F8014D6E
:10190C0001F8014DF8E710BD994204D011F8014BD4
:10191C0002F8014FF8E710BDF8B5074615460E461C
:10192C0021B91146BDE8F840FFF7D0BB1AB9FFF753
:10193C0089FC2846F8BD00F015F885420ED92946D9
:10194C003846FFF7C3FB044650B131462A46FFF731
:10195C00BDFF31463846FFF775FC01E03046F8BD57
:10196C002046F8BD51F8040C0028BEBF091851F8E8
:10197C00043CC018043870472E2E2F73797374658D
:10198C006D2F7372632F73746D333266312D7374D4
:10199C00647065726970682F73746D3332663130A0
:1019AC00785F6770696F2E63000000002E2E2F7316
:1019BC00797374656D2F7372632F73746D33326624
:1019CC00312D7374647065726970682F73746D3324
:1019DC0032663130785F7263632E630061626F72BE
:1019EC007428292C2065786974696E672E2E2E0058
:1019FC003A7474002F746D70000000002C20667512
:101A0C006E6374696F6E3A20000000006173736539
:101A1C007274696F6E2022257322206661696C6571
:101A2C00643A2066696C6520222573222C206C692F
:101A3C006E65202564257325730A00006173736538
:101A4C0072745F706172616D2829206661696C65C2
:101A5C00643A2066696C6520222573222C206C69FF
:101A6C006E652025640A00006D61696E28617267DD
:101A7C00633D25642C20617267763D5B000000009D
:101A8C002C20000022257322000000005D293B0A57
:101A9C0000000000537461636B206672616D653ADF
:101AAC000A000000205230203D2020253038580AF2
:101ABC0000000000205231203D2020253038580AEB
:101ACC0000000000205232203D2020253038580ADA
:101ADC0000000000205233203D2020253038580AC9
:101AEC000000000020523132203D20253038580AA9
:101AFC0000000000204C52203D2020253038580A90
:101B0C0000000000205043203D2020253038580A8A
:101B1C000000000020505352203D20253038580A38
:101B2C00000000004653522F4641523A0A00000072
:101B3C002043465352203D2020253038580A0000BF
:101B4C002048465352203D2020253038580A0000AA
:101B5C002044465352203D2020253038580A00009E
:101B6C002041465352203D2020253038580A000091
:101B7C00204D4D464152203D20253038580A00005A
:101B8C002042464152203D2020253038580A000082
:101B9C004D6973630A000000204C522F4558435F77
:101BAC0052455455524E3D20253038580A000000FD
:101BBC005B486172644661756C745D0A00000000DC
:101BCC005B4275734661756C745D0A005B5573619D
:101BDC0067654661756C745D0A00000053616D7039
:101BEC006C652031737420726F77000053616D70D7
:101BFC006C6520326E6420726F770000002020200C
:101C0C0020202020202028282828282020202020A0
:101C1C002020202020202020202020202088101070
:101C2C0010101010101010101010101010040404CC
:101C3C00040404040404041010101010101041418A
:101C4C004141414101010101010101010101010178
:101C5C00010101010101010110101010101042428C
:101C6C004242424202020202020202020202020248
:101C7C0002020202020202021010101020000000E8
:101C8C000000000000000000000000000000000048
:101C9C000000000000000000000000000000000038
:101CAC000000000000000000000000000000000028
:101CBC000000000000000000000000000000000018
:101CCC000000000000000000000000000000000008
:101CDC0000000000000000000000000000000000F8
:101CEC0000000000000000000000000000000000E8
:101CFC0000000000000000000000000000000000D8
:101D0C0000000000000000000000000000000000C7
:101D1C0000000000000000000000000000000000B7
:101D2C0000000000000000000000000000000000A7
:101D3C000000000000000000000000000000000097
:101D4C000000000000000000000000000000000087
:101D5C000000000000000000000000000000000077
:101D6C004300232D302B2000686C4C0065666745C2
:101D7C0046470030313233343536373839414243F7
:101D8C0044454600303132333435363738396162A8
:051D9C006364656600B0
:101DA40078563412020406080000000001020304FD
:101DB40001020304060708090000000000000000F7
:101DC400010203040607080900A24A04081C0008CB
:101DD400000000000C1D00082C1D00084C1D00080C
:101DE40000000000000000000000000000000000EF
:101DF4006C1D00080000000000000000000000004E
:101E040000000000000000000000000000000000CE
:101E140000000000000000000000000000000000BE
:101E240000000000000000000000000000000000AE
:081E34003000002032547698C2
:040000050800010DE1
:00000001FF
